{
  "contractName": "Election",
  "abi": [
    {
      "inputs": [
        {
          "internalType": "address payable",
          "name": "_admin",
          "type": "address"
        }
      ],
      "stateMutability": "nonpayable",
      "type": "constructor"
    },
    {
      "inputs": [],
      "name": "admin",
      "outputs": [
        {
          "internalType": "address payable",
          "name": "",
          "type": "address"
        }
      ],
      "stateMutability": "view",
      "type": "function",
      "constant": true
    },
    {
      "inputs": [
        {
          "internalType": "uint256",
          "name": "",
          "type": "uint256"
        }
      ],
      "name": "candidates",
      "outputs": [
        {
          "internalType": "address",
          "name": "id",
          "type": "address"
        },
        {
          "internalType": "string",
          "name": "name",
          "type": "string"
        },
        {
          "internalType": "uint256",
          "name": "votes",
          "type": "uint256"
        }
      ],
      "stateMutability": "view",
      "type": "function",
      "constant": true
    },
    {
      "inputs": [
        {
          "internalType": "address",
          "name": "",
          "type": "address"
        }
      ],
      "name": "voters",
      "outputs": [
        {
          "internalType": "bool",
          "name": "permission",
          "type": "bool"
        },
        {
          "internalType": "bool",
          "name": "voteStatus",
          "type": "bool"
        }
      ],
      "stateMutability": "view",
      "type": "function",
      "constant": true
    },
    {
      "inputs": [
        {
          "internalType": "string",
          "name": "name",
          "type": "string"
        }
      ],
      "name": "addCandidate",
      "outputs": [],
      "stateMutability": "nonpayable",
      "type": "function"
    },
    {
      "inputs": [
        {
          "internalType": "uint256",
          "name": "_id",
          "type": "uint256"
        }
      ],
      "name": "getCandidate",
      "outputs": [
        {
          "components": [
            {
              "internalType": "address",
              "name": "id",
              "type": "address"
            },
            {
              "internalType": "string",
              "name": "name",
              "type": "string"
            },
            {
              "internalType": "uint256",
              "name": "votes",
              "type": "uint256"
            }
          ],
          "internalType": "struct Election.Candidate",
          "name": "",
          "type": "tuple"
        }
      ],
      "stateMutability": "view",
      "type": "function",
      "constant": true
    },
    {
      "inputs": [],
      "name": "getCount",
      "outputs": [
        {
          "internalType": "uint256",
          "name": "",
          "type": "uint256"
        }
      ],
      "stateMutability": "view",
      "type": "function",
      "constant": true
    },
    {
      "inputs": [
        {
          "internalType": "address",
          "name": "_voter",
          "type": "address"
        }
      ],
      "name": "addVoter",
      "outputs": [],
      "stateMutability": "nonpayable",
      "type": "function"
    },
    {
      "inputs": [
        {
          "internalType": "uint256",
          "name": "_id",
          "type": "uint256"
        }
      ],
      "name": "getVotes",
      "outputs": [
        {
          "internalType": "uint256",
          "name": "",
          "type": "uint256"
        }
      ],
      "stateMutability": "view",
      "type": "function",
      "constant": true
    },
    {
      "inputs": [
        {
          "internalType": "uint256",
          "name": "_id",
          "type": "uint256"
        }
      ],
      "name": "addVotes",
      "outputs": [],
      "stateMutability": "nonpayable",
      "type": "function"
    },
    {
      "inputs": [],
      "name": "voterAddress",
      "outputs": [
        {
          "internalType": "address",
          "name": "",
          "type": "address"
        }
      ],
      "stateMutability": "view",
      "type": "function",
      "constant": true
    },
    {
      "inputs": [],
      "name": "endVote",
      "outputs": [],
      "stateMutability": "nonpayable",
      "type": "function"
    }
  ],
  "bytecode": "0x60806040523480156200001157600080fd5b506040516200151a3803806200151a8339818101604052810190620000379190620000f0565b806000806101000a81548173ffffffffffffffffffffffffffffffffffffffff021916908373ffffffffffffffffffffffffffffffffffffffff16021790555060006003819055505062000122565b600080fd5b600073ffffffffffffffffffffffffffffffffffffffff82169050919050565b6000620000b8826200008b565b9050919050565b620000ca81620000ab565b8114620000d657600080fd5b50565b600081519050620000ea81620000bf565b92915050565b60006020828403121562000109576200010862000086565b5b60006200011984828501620000d9565b91505092915050565b6113e880620001326000396000f3fe608060405234801561001057600080fd5b50600436106100a95760003560e01c8063a3ec138d11610071578063a3ec138d14610166578063a87d942c14610197578063b9223946146101b5578063f4ab9adf146101bf578063f851a440146101db578063ff981099146101f9576100a9565b80633477ee2e146100ae57806335b8e820146100e0578063462e91ec1461011057806394a1be9c1461012c578063992ac9fa14610148575b600080fd5b6100c860048036038101906100c3919061097b565b610229565b6040516100d793929190610a88565b60405180910390f35b6100fa60048036038101906100f5919061097b565b6102fb565b6040516101079190610b7e565b60405180910390f35b61012a60048036038101906101259190610cd5565b610426565b005b6101466004803603810190610141919061097b565b6104f2565b005b6101506106a7565b60405161015d9190610d1e565b60405180910390f35b610180600480360381019061017b9190610d65565b6106af565b60405161018e929190610dad565b60405180910390f35b61019f6106ed565b6040516101ac9190610dd6565b60405180910390f35b6101bd6106f7565b005b6101d960048036038101906101d49190610d65565b6107be565b005b6101e36108aa565b6040516101f09190610e12565b60405180910390f35b610213600480360381019061020e919061097b565b6108ce565b6040516102209190610dd6565b60405180910390f35b60016020528060005260406000206000915090508060000160009054906101000a900473ffffffffffffffffffffffffffffffffffffffff169080600101805461027290610e5c565b80601f016020809104026020016040519081016040528092919081815260200182805461029e90610e5c565b80156102eb5780601f106102c0576101008083540402835291602001916102eb565b820191906000526020600020905b8154815290600101906020018083116102ce57829003601f168201915b5050505050908060020154905083565b6103036108fa565b600160006001846103149190610ebc565b81526020019081526020016000206040518060600160405290816000820160009054906101000a900473ffffffffffffffffffffffffffffffffffffffff1673ffffffffffffffffffffffffffffffffffffffff1673ffffffffffffffffffffffffffffffffffffffff16815260200160018201805461039390610e5c565b80601f01602080910402602001604051908101604052809291908181526020018280546103bf90610e5c565b801561040c5780601f106103e15761010080835404028352916020019161040c565b820191906000526020600020905b8154815290600101906020018083116103ef57829003601f168201915b505050505081526020016002820154815250509050919050565b60405180606001604052803373ffffffffffffffffffffffffffffffffffffffff168152602001828152602001600081525060016000600354815260200190815260200160002060008201518160000160006101000a81548173ffffffffffffffffffffffffffffffffffffffff021916908373ffffffffffffffffffffffffffffffffffffffff16021790555060208201518160010190816104c9919061109c565b5060408201518160020155905050600360008154809291906104ea9061116e565b919050555050565b600260003373ffffffffffffffffffffffffffffffffffffffff1673ffffffffffffffffffffffffffffffffffffffff16815260200190815260200160002060000160009054906101000a900460ff16610581576040517f08c379a000000000000000000000000000000000000000000000000000000000815260040161057890611228565b60405180910390fd5b600260003373ffffffffffffffffffffffffffffffffffffffff1673ffffffffffffffffffffffffffffffffffffffff16815260200190815260200160002060000160019054906101000a900460ff1615610611576040517f08c379a000000000000000000000000000000000000000000000000000000000815260040161060890611294565b60405180910390fd5b6001600260003373ffffffffffffffffffffffffffffffffffffffff1673ffffffffffffffffffffffffffffffffffffffff16815260200190815260200160002060000160016101000a81548160ff0219169083151502179055506001600060018361067d9190610ebc565b8152602001908152602001600020600201600081548092919061069f9061116e565b919050555050565b600033905090565b60026020528060005260406000206000915090508060000160009054906101000a900460ff16908060000160019054906101000a900460ff16905082565b6000600354905090565b60008054906101000a900473ffffffffffffffffffffffffffffffffffffffff1673ffffffffffffffffffffffffffffffffffffffff163373ffffffffffffffffffffffffffffffffffffffff1614610785576040517f08c379a000000000000000000000000000000000000000000000000000000000815260040161077c90611326565b60405180910390fd5b60008054906101000a900473ffffffffffffffffffffffffffffffffffffffff1673ffffffffffffffffffffffffffffffffffffffff16ff5b60008054906101000a900473ffffffffffffffffffffffffffffffffffffffff1673ffffffffffffffffffffffffffffffffffffffff163373ffffffffffffffffffffffffffffffffffffffff161461084c576040517f08c379a000000000000000000000000000000000000000000000000000000000815260040161084390611392565b60405180910390fd5b6001600260008373ffffffffffffffffffffffffffffffffffffffff1673ffffffffffffffffffffffffffffffffffffffff16815260200190815260200160002060000160006101000a81548160ff02191690831515021790555050565b60008054906101000a900473ffffffffffffffffffffffffffffffffffffffff1681565b6000600160006001846108e19190610ebc565b8152602001908152602001600020600201549050919050565b6040518060600160405280600073ffffffffffffffffffffffffffffffffffffffff16815260200160608152602001600081525090565b6000604051905090565b600080fd5b600080fd5b6000819050919050565b61095881610945565b811461096357600080fd5b50565b6000813590506109758161094f565b92915050565b6000602082840312156109915761099061093b565b5b600061099f84828501610966565b91505092915050565b600073ffffffffffffffffffffffffffffffffffffffff82169050919050565b60006109d3826109a8565b9050919050565b6109e3816109c8565b82525050565b600081519050919050565b600082825260208201905092915050565b60005b83811015610a23578082015181840152602081019050610a08565b60008484015250505050565b6000601f19601f8301169050919050565b6000610a4b826109e9565b610a5581856109f4565b9350610a65818560208601610a05565b610a6e81610a2f565b840191505092915050565b610a8281610945565b82525050565b6000606082019050610a9d60008301866109da565b8181036020830152610aaf8185610a40565b9050610abe6040830184610a79565b949350505050565b610acf816109c8565b82525050565b600082825260208201905092915050565b6000610af1826109e9565b610afb8185610ad5565b9350610b0b818560208601610a05565b610b1481610a2f565b840191505092915050565b610b2881610945565b82525050565b6000606083016000830151610b466000860182610ac6565b5060208301518482036020860152610b5e8282610ae6565b9150506040830151610b736040860182610b1f565b508091505092915050565b60006020820190508181036000830152610b988184610b2e565b905092915050565b600080fd5b600080fd5b7f4e487b7100000000000000000000000000000000000000000000000000000000600052604160045260246000fd5b610be282610a2f565b810181811067ffffffffffffffff82111715610c0157610c00610baa565b5b80604052505050565b6000610c14610931565b9050610c208282610bd9565b919050565b600067ffffffffffffffff821115610c4057610c3f610baa565b5b610c4982610a2f565b9050602081019050919050565b82818337600083830152505050565b6000610c78610c7384610c25565b610c0a565b905082815260208101848484011115610c9457610c93610ba5565b5b610c9f848285610c56565b509392505050565b600082601f830112610cbc57610cbb610ba0565b5b8135610ccc848260208601610c65565b91505092915050565b600060208284031215610ceb57610cea61093b565b5b600082013567ffffffffffffffff811115610d0957610d08610940565b5b610d1584828501610ca7565b91505092915050565b6000602082019050610d3360008301846109da565b92915050565b610d42816109c8565b8114610d4d57600080fd5b50565b600081359050610d5f81610d39565b92915050565b600060208284031215610d7b57610d7a61093b565b5b6000610d8984828501610d50565b91505092915050565b60008115159050919050565b610da781610d92565b82525050565b6000604082019050610dc26000830185610d9e565b610dcf6020830184610d9e565b9392505050565b6000602082019050610deb6000830184610a79565b92915050565b6000610dfc826109a8565b9050919050565b610e0c81610df1565b82525050565b6000602082019050610e276000830184610e03565b92915050565b7f4e487b7100000000000000000000000000000000000000000000000000000000600052602260045260246000fd5b60006002820490506001821680610e7457607f821691505b602082108103610e8757610e86610e2d565b5b50919050565b7f4e487b7100000000000000000000000000000000000000000000000000000000600052601160045260246000fd5b6000610ec782610945565b9150610ed283610945565b9250828203905081811115610eea57610ee9610e8d565b5b92915050565b60008190508160005260206000209050919050565b60006020601f8301049050919050565b600082821b905092915050565b600060088302610f527fffffffffffffffffffffffffffffffffffffffffffffffffffffffffffffffff82610f15565b610f5c8683610f15565b95508019841693508086168417925050509392505050565b6000819050919050565b6000610f99610f94610f8f84610945565b610f74565b610945565b9050919050565b6000819050919050565b610fb383610f7e565b610fc7610fbf82610fa0565b848454610f22565b825550505050565b600090565b610fdc610fcf565b610fe7818484610faa565b505050565b5b8181101561100b57611000600082610fd4565b600181019050610fed565b5050565b601f8211156110505761102181610ef0565b61102a84610f05565b81016020851015611039578190505b61104d61104585610f05565b830182610fec565b50505b505050565b600082821c905092915050565b600061107360001984600802611055565b1980831691505092915050565b600061108c8383611062565b9150826002028217905092915050565b6110a5826109e9565b67ffffffffffffffff8111156110be576110bd610baa565b5b6110c88254610e5c565b6110d382828561100f565b600060209050601f83116001811461110657600084156110f4578287015190505b6110fe8582611080565b865550611166565b601f19841661111486610ef0565b60005b8281101561113c57848901518255600182019150602085019450602081019050611117565b868310156111595784890151611155601f891682611062565b8355505b6001600288020188555050505b505050505050565b600061117982610945565b91507fffffffffffffffffffffffffffffffffffffffffffffffffffffffffffffffff82036111ab576111aa610e8d565b5b600182019050919050565b7f596f7520646f206e6f742068617665207065726d697373696f6e20746f20766f60008201527f7465000000000000000000000000000000000000000000000000000000000000602082015250565b60006112126022836109f4565b915061121d826111b6565b604082019050919050565b6000602082019050818103600083015261124181611205565b9050919050565b7f596f75206861766520616c726561647920766f74656400000000000000000000600082015250565b600061127e6016836109f4565b915061128982611248565b602082019050919050565b600060208201905081810360008301526112ad81611271565b9050919050565b7f4f6e6c79207468652061646d696e2063616e20656e642074686520766f74696e60008201527f672073657373696f6e0000000000000000000000000000000000000000000000602082015250565b60006113106029836109f4565b915061131b826112b4565b604082019050919050565b6000602082019050818103600083015261133f81611303565b9050919050565b7f4f6e6c79207468652061646d696e2063616e2061646420766f74657273000000600082015250565b600061137c601d836109f4565b915061138782611346565b602082019050919050565b600060208201905081810360008301526113ab8161136f565b905091905056fea2646970667358221220d086365f5c9d9e889b9894d914f2cb4b7ffba6d506419c56c49f8ee5560efb7b64736f6c63430008130033",
  "immutableReferences": {},
  "source": "// SPDX-License-Identifier: MIT\npragma solidity ^0.8.8;\n\ncontract Election {\n    struct Candidate {\n        address id;\n        string name;\n        uint votes;\n    }\n    struct Voter {\n        bool permission;\n        bool voteStatus;\n    }\n    address payable public admin;\n    mapping(uint => Candidate) public candidates;\n    mapping(address => Voter) public voters;\n\n    uint count;\n\n    constructor(address payable _admin) {\n        admin = _admin;\n        count = 0;\n    }\n\n    function addCandidate(string memory name) public {\n        candidates[count] = Candidate(msg.sender, name, 0);\n        count++;\n    }\n\n    function getCandidate(uint _id) public view returns (Candidate memory) {\n        return candidates[_id - 1];\n    }\n\n    function getCount() public view returns (uint) {\n        return count;\n    }\n\n    function addVoter(address _voter) public {\n        require(msg.sender == admin, \"Only the admin can add voters\");\n        voters[_voter].permission = true;\n    }\n\n    function getVotes(uint _id) public view returns (uint) {\n        return candidates[_id - 1].votes;\n    }\n\n    function addVotes(uint _id) public {\n        require(\n            voters[msg.sender].permission,\n            \"You do not have permission to vote\"\n        );\n        require(!voters[msg.sender].voteStatus, \"You have already voted\");\n        voters[msg.sender].voteStatus = true;\n        candidates[_id - 1].votes++;\n    }\n\n    function voterAddress() public view returns (address) {\n        return msg.sender;\n    }\n\n    function endVote() public {\n        require(\n            msg.sender == admin,\n            \"Only the admin can end the voting session\"\n        );\n        selfdestruct(admin);\n    }\n}\n",
  "sourcePath": "/home/carie/Blockchain_Final_Project/contracts/Election.sol",
  "compiler": {
    "name": "solc",
    "version": "0.8.19+commit.7dd6d404.Emscripten.clang"
  },
  "schemaVersion": "3.4.16",
  "updatedAt": "2023-11-29T05:08:12.230Z",
  "networkType": "ethereum",
  "devdoc": {
    "kind": "dev",
    "methods": {},
    "version": 1
  },
  "userdoc": {
    "kind": "user",
    "methods": {},
    "version": 1
  }
}